{
  "contractName": "DocumentVerification",
  "abi": [
    {
      "anonymous": false,
      "inputs": [
        {
          "indexed": true,
          "internalType": "string",
          "name": "documentHash",
          "type": "string"
        }
      ],
      "name": "DocumentAdded",
      "type": "event"
    },
    {
      "inputs": [
        {
          "internalType": "string",
          "name": "documentHash",
          "type": "string"
        }
      ],
      "name": "addDocument",
      "outputs": [],
      "stateMutability": "nonpayable",
      "type": "function"
    },
    {
      "inputs": [
        {
          "internalType": "string",
          "name": "documentHash",
          "type": "string"
        }
      ],
      "name": "verifyDocument",
      "outputs": [
        {
          "internalType": "bool",
          "name": "",
          "type": "bool"
        }
      ],
      "stateMutability": "view",
      "type": "function",
      "constant": true
    }
  ],
  "bytecode": "0x608060405234801561001057600080fd5b50610459806100206000396000f3fe608060405234801561001057600080fd5b50600436106100365760003560e01c8063beee5eb71461003b578063f740e0451461006b575b600080fd5b6100556004803603810190610050919061020b565b610087565b60405161006291906102e3565b60405180910390f35b6100856004803603810190610080919061020b565b6100bb565b005b6000808260405161009891906102cc565b908152602001604051809103902060009054906101000a900460ff169050919050565b6000816040516100cb91906102cc565b908152602001604051809103902060009054906101000a900460ff1615610127576040517f08c379a000000000000000000000000000000000000000000000000000000000815260040161011e906102fe565b60405180910390fd5b600160008260405161013991906102cc565b908152602001604051809103902060006101000a81548160ff0219169083151502179055508060405161016c91906102cc565b60405180910390207f10139f827a9aa59dba6be467ace4fb3b388d30087e3cfd9b014ff81ce11ac2c260405160405180910390a250565b60006101b66101b18461034f565b61031e565b9050828152602081018484840111156101ce57600080fd5b6101d98482856103b2565b509392505050565b600082601f8301126101f257600080fd5b81356102028482602086016101a3565b91505092915050565b60006020828403121561021d57600080fd5b600082013567ffffffffffffffff81111561023757600080fd5b610243848285016101e1565b91505092915050565b610255816103a6565b82525050565b60006102668261037f565b610270818561039b565b93506102808185602086016103c1565b80840191505092915050565b600061029960178361038a565b91507f446f63756d656e7420616c7265616479206578697374730000000000000000006000830152602082019050919050565b60006102d8828461025b565b915081905092915050565b60006020820190506102f8600083018461024c565b92915050565b600060208201905081810360008301526103178161028c565b9050919050565b6000604051905081810181811067ffffffffffffffff82111715610345576103446103f4565b5b8060405250919050565b600067ffffffffffffffff82111561036a576103696103f4565b5b601f19601f8301169050602081019050919050565b600081519050919050565b600082825260208201905092915050565b600081905092915050565b60008115159050919050565b82818337600083830152505050565b60005b838110156103df5780820151818401526020810190506103c4565b838111156103ee576000848401525b50505050565b7f4e487b7100000000000000000000000000000000000000000000000000000000600052604160045260246000fdfea2646970667358221220edfc303f81a7dd44e2188d3ac1f45846e22cd75e72adb9ee6a56f63d6ea4c8d564736f6c63430008000033",
  "immutableReferences": {},
  "source": "// SPDX-License-Identifier: MIT\r\npragma solidity ^0.8.0;\r\n\r\ncontract DocumentVerification {\r\n    mapping(string => bool) private documents;\r\n    \r\n    event DocumentAdded(string indexed documentHash);\r\n    \r\n    function addDocument(string memory documentHash) public {\r\n        require(!documents[documentHash], \"Document already exists\");\r\n        documents[documentHash] = true;\r\n        emit DocumentAdded(documentHash);\r\n    }\r\n    \r\n    function verifyDocument(string memory documentHash) public view returns (bool) {\r\n        return documents[documentHash];\r\n    }\r\n}",
  "sourcePath": "D:\\Project\\blockchain_doc_verify\\blockchain\\contracts\\DocumentVerification.sol",
  "compiler": {
    "name": "solc",
    "version": "0.8.0+commit.c7dfd78e.Emscripten.clang"
  },
  "schemaVersion": "3.4.16",
  "updatedAt": "2024-07-12T21:25:30.027Z",
  "networkType": "ethereum",
  "devdoc": {
    "kind": "dev",
    "methods": {},
    "version": 1
  },
  "userdoc": {
    "kind": "user",
    "methods": {},
    "version": 1
  }
}